:020000020000FC
:1020000007EB0093E50000E10093E6000FE000938A
:10201000E70000E80093E40008950F921F920F93E9
:102020001F932F933F93AF93BF93EF93FF93125060
:10203000003209F40CE20A52000F000FE2E8F0E26D
:102040000024E00FF01DACEEBB27212F1695A10F49
:1020500034E000EF20FD0295059020FD02941C90D5
:10206000102210281C9215963A95B1F7FF91EF9126
:10207000BF91AF913F912F911F910F911F900F90A2
:102080000895080A0A0E00080A0200000000000075
:102090000A0001050A0008000004090505050801F9
:1020A000010001010E0101010B0100050B000104FB
:1020B0000B0101040F010101010001050F010105E0
:1020C0000B010002000400000000080000080000EE
:1020D0000A010002000400000000000000000105E9
:1020E0000F000109090301040401010901030104AE
:1020F0000E0101040E0001040D0100050F0000088F
:102100000002000105010804060800040401080794
:102110000500000705080105050101050E00010580
:10212000050901050E080102000901080002000569
:102130000501080404040005050C0802000C08024F
:102140000002090000050104040100020008010169
:0E21500001010000000000000001090F0F0F48
:040000000C9400015B
:040014000C945601F1
:10020000F8940FEF0DBF04E00EBF08E00093B600B6
:1002100001E00093700001E00093B00000270DBBE7
:100220001DB1137F0EB10C601DB90EB900E0009333
:100230007F0014B11F7205B1006D14B905B90E9499
:10024000001040E050E060E070E080E090E09093CB
:100250000001909301019093020190930301909308
:10026000040100E312E00E940D1013E00E940D1043
:1002700014E00E940D1015E00E940D1016E00E947F
:100280000D1023B13CB1207D3C70232B3FEF3A95FC
:10029000F1F703B13CB1007D3C70032B20130C94AB
:1002A000410122FF0C94210123FF78940F931F93A7
:1002B0002F933F934F935F936F937F938F939F936E
:1002C0000FB70F9300910101039500930101009175
:1002D00001010D3030F04093010153955A300CF07C
:1002E00050E0009100010395009300010038B0F048
:1002F00010E0109300011093010163956A30DCF166
:100300006A5073957630BCF1765083958A309CF1B3
:100310008A50939596307CF1965028F116E0052F7F
:10032000005D0E940D101A950E94BF01062F005D0E
:100330000E940D101A950E94BF01072F005D0E94B8
:100340000D101A950E94BF01082F005D0E940D102C
:100350001A950E94BF01092F005D0E940D100E9496
:10036000BF010C9462010F910FBF4F913F912F91EC
:100370001F910F9118950C948E010C94620123B17A
:100380003CB1207D3C70232BE3E0EA95FFEFFA952A
:10039000F030E9F7E030C9F703B13CB1007D3C70C3
:1003A000032B20130C94BF0122FF0C94210108950C
:00000001FF
